:020000040800F2
:10000000C04700205D1F00087D0D00087F0D00081F
:10001000830D0008870D00088B0D0008000000000C
:100020000000000000000000000000008F0D00082C
:10003000910D000800000000930D0008950D0008C8
:10004000771F0008771F0008771F0008771F000838
:10005000771F0008771F0008771F0008771F000828
:10006000771F0008771F0008771F0008771F000818
:10007000771F0008771F0008771F0008771F000808
:10008000771F0008771F0008771F0008771F0008F8
:10009000771F0008771F0008771F0008771F0008E8
:1000A000771F0008771F0008771F0008771F0008D8
:1000B000771F0008771F0008771F0008771F0008C8
:1000C000771F0008771F0008771F0008771F0008B8
:1000D000771F00084F1D0008771F0008771F0008D2
:1000E000771F0008771F0008771F0008771F000898
:1000F000771F0008771F0008771F0008771F000888
:10010000771F0008771F0008771F0008771F000877
:10011000BB1E0008771F0008CD140008771F0008D9
:10012000771F0008771F0008771F0008771F000857
:1001300000F002F800F06FF80AA090E8000C82448A
:100140008344AAF10107DA4501D100F064F8AFF267
:10015000090EBAE80F0013F0010F18BFFB1A43F0A5
:1001600001031847C8950000E895000010F8013B0E
:100170000A4413F0030408BF10F8014B1D1108BF17
:1001800010F8015B641E05D010F8016B641E01F8C5
:10019000016BF9D1002D15D010F8014B03F00C03C1
:1001A0000C2BA1EB04040ABF10F8013BA4EB831451
:1001B000A4EB032405F1010314F8016B5B1E01F8A5
:1001C000016BF9D5914238BF10F8013BD1D370478C
:1001D0000023002400250026103A28BF78C1FBD850
:1001E000520728BF30C148BF0B607047642907F031
:1001F0003182752907F02E82782907F067826329FA
:1002000007F06185732907F06685002070471FB5E8
:100210001FBD10B510BD07F09BFD1146FFF7F7FF9E
:1002200000F076F807F0B9FD03B4FFF7F2FF03BC66
:1002300001F07EFD30BF72B662B680F30888704769
:1002400010B5F848007858B90120F64908703221F5
:10025000F54804F065FA4FF47A71F44804F060FA56
:1002600006F001F8F249088008460088002824DDDD
:100270004FF4006004F0CFFAEE49898988420BD12F
:10028000012004F0A5FCEA48008800283FDD05F0C5
:10029000F8FE05F0F0FF3AE040F6060004F0BBFA85
:1002A000E4498989884232D105F07FFEE048008820
:1002B00000282CDD05F0DFFF29E0DB4804F043FADD
:1002C00028B3D94804F034FA002415E000BF04EB49
:1002D0004400D94901EBC000D8490860052004F06A
:1002E00077FC00BFD2480088002803DD05F0C9FE76
:1002F00005F0C1FF601CC4B20A2CE7DBCB4804F058
:1003000022FA20B1C94804F013FA05F0A0FD10BD8F
:100310008CB0282101A807F0F8FB4FF47A3001F0E7
:1003200030FD01F09BFC4FF4165001F076FD00F01B
:1003300023FEC3A007F016F90A2201A9C54800F060
:100340006BFE4FF47A7001F0C6FC0122C249C3482B
:1003500000F062FEBDF81200C1490870BDF812003D
:10036000000A4870BDF814008870BDF81400000A37
:10037000C8700320BB49087002E0BBA007F0F2F888
:1003800005F05AFF0028F8D104F092FABCA007F05B
:10039000E9F800BF4AF6C000ADF82C004DF6014068
:1003A000ADF82E0000BF00BFBDF82C00B849088092
:1003B000BDF82E00488000BF00BF4AF6C000ADF86F
:1003C0002C0040F20110ADF82E0000BF00BFBDF8B8
:1003D0002C00B0490880BDF82E00488000BF00BF47
:1003E0004FF6FF70ADF82C00FF20ADF82E0000BFD7
:1003F00000BFBDF82C00A8490880BDF82E00488039
:1004000000BF07F043F804E0FFF71AFF0A2001F0ED
:100410003EFCF9E770B505460E46002404E0295D70
:100420009EA007F09FF8641CB442F8D393A007F095
:1004300099F870BDF8B5002000900025002600F066
:100440008CFF4FF4FA7001F046FC684601F063FD42
:10045000074693A100F07CFE0546684601F05BFD6F
:10046000074690A100F074FE0646684601F053FD71
:1004700007460099FFF7CEFF01F053FD00F07BFF28
:100480004FF4FA7001F027FC684601F044FD07467E
:1004900083A100F05DFE0546684601F03CFD07467D
:1004A00080A100F055FE0646684601F034FD07467F
:1004B0000099FFF7AFFF01F034FD002427E000F0C2
:1004C0006EFE41F2883001F006FC684601F023FD23
:1004D000074673A100F03CFE0546684601F01BFD8F
:1004E000074670A100F034FE0646684601F013FD91
:1004F00007460099FFF78EFF01F013FD0DB106B11D
:1005000007E0022C01D10020F8BD601CC4B2032C0E
:10051000D5DB00BF00241EE000F04FFE4FF4FA7060
:1005200001F0D9FB684601F0F6FC07465CA100F03B
:100530000FFE0546684601F0EEFC07460099FFF7FE
:1005400069FF01F0EEFC05B107E0022C01D10020AB
:10055000DAE7601CC4B2032CDEDB00BF00241AE023
:1005600000F039FE4FF4FA7001F0B5FB684601F077
:10057000D2FC07464AA100F0EBFD0546684601F0B3
:10058000CAFC07460099FFF745FF01F0CAFC05B118
:1005900003E0601CC4B2032CE2DB00BF00F029FEC4
:1005A0004FF4FA7001F097FB684601F0B4FC07467F
:1005B0000099FFF72FFF01F0B4FC002420E03A4936
:1005C0003A4800F024FE4FF4FA7001F084FB6846CC
:1005D00001F0A1FC074632A100F0BAFD05466846CD
:1005E00001F099FC07460099FFF714FF01F099FC10
:1005F00005B107E0022C01D1002085E7601CC4B2E0
:10060000032CDCDB00BF01207EE770B505460E46FB
:10061000002404E0295D26A006F0A4FF641CB44277
:10062000F8D370BD300000202000002028000020FA
:100630009C00002000280020943E0020A8000020FC
:10064000D5FDD4DABCECB2E2B9CCBCFEB8FCD0C269
:10065000210D0A00005003080A000020006F000866
:10066000000000200C000020454E4332384A36304E
:1006700020496E6974204572726F72210D0A000064
:10068000454E4332384A363020496E69740D0A00AF
:1006900080000020840000208800002025630000E6
:1006A0004F4B000031000000BE7D0008C37D0008F4
:1006B0002558200070B504460D462946204600F016
:1006C00010FE29462046FFF7A0FF022070BD2DE94D
:1006D000F04FADF2044D4FF0000A0020CDF80004B9
:1006E0008046002600270025FD90FE90FF90814661
:1006F000FC904FF47A7102A807F007FAFC480078E2
:1007000020BBFC48007888B10120FC90FCA9FA4B82
:10071000CDE90010F94802780121F94801F05AFAB0
:1007200000F0FF0A5146F648FFF7C4FFF54800788D
:10073000401CF4490870EF48007810B90A20F249CB
:100740000870F0480178F1A006F00CFFE848007846
:1007500001281ED1E7480078D8B1F1480088022866
:1007600003D00120EF49C87002E00220ED49C870B3
:100770000420EC49E04BCDE90010E0480278D2219A
:10078000DF4801F027FA00F0FF0A5146DC48FFF786
:1007900091FFD7480078401CD5490870084600787A
:1007A0000A2801DB0020087042F2107001F093FA71
:1007B0000DF5806001F0AFFB00287DD0DDF800046E
:1007C0000028FAD00DF5806001F0A5FB834659465C
:1007D00002A8DDF8002407F019F902A9D248DDF8D3
:1007E000002400F0D6FD8046D0A006F0BBFE4146B6
:1007F000CD48FFF70AFFAFF27C1006F0B3FE0020F1
:10080000CD490870B8F5FA6F01D901F08AFB0024D0
:1008100033E2C548005D7E287ED1C349601C085C78
:100820000E28F9D1C5480078401CC4490870012041
:10083000C1490870BC49601D095CBB4AA01D105C21
:1008400001EB002086B2B21D91B2B74A2244501C7F
:1008500000F020FE0746BAA006F084FEF9B2BBA065
:1008600006F080FE3912B9A006F07CFEB8A006F0B2
:1008700079FEE01D3044AC4A115CB4A006F072FE73
:10088000E01D3044401CA84A115CB0A006F06AFE8E
:10089000AFF2182006F066FEE01D3044A249085C65
:1008A000F9B28842B8D1E01D3044401C9E49085C32
:1008B000B0EB172FB0D100E0FCE12144C81D0422A9
:1008C0008D4906F0D2FF00282BD18C480078401CBF
:1008D0008A4908709449A01C085CDD2822D10020B8
:1008E000884908708F489049B1F80B200280497BF5
:1008F000817001228A49994800F08EFB04208949C1
:100900007D4BCDE900107D480278D2217C4801F072
:1009100061F900F0FF0A00E0AEE151467848FFF7C8
:10092000C9FE9DE18049A01C085CD02870D1002040
:10093000744908706F4908708948006808B9012037
:1009400000E0002086490860774904F10C00095C4A
:10095000754A401E105C01EB002082490880084661
:100960000088022804D1042263497F4800F065FB17
:100970007C480088401C7B4908806B4904F10D00CD
:10098000085C0106684A04F10E00105C01EB0041AE
:1009900004F10F00105C01EB002104F11000105C69
:1009A0000D18114604F11200095C401E105C01EBA9
:1009B00000206E4908805A480088022816D16C48E9
:1009C00028446C4988420DD2224402F11301684A3E
:1009D000A818664A128803F045FC4FF47A7001F0BB
:1009E0007AF919E064A006F0BDFD15E05E480E3806
:1009F0002844664988420CD24B4A224402F1130132
:100A0000594A0E3AA818594A128803F02BFC03E001
:100A10003BE059A006F0A6FD642001F05CF95148C6
:100A20000088401E000A8DF8F4034E480078401EEE
:100A3000C0B28DF8F503280E8DF8F603280C8DF85A
:100A4000F703280A8DF8F803E8B28DF8F903474850
:100A50000088000A8DF8FA03444800788DF8FB03FB
:100A600001208DF8FC030920FDA9234BCDE90010DE
:100A700022480278D321224801F0ACF800F0FF0AA6
:100A800051461F48FFF716FEEAE02749A01C085C04
:100A9000DE28F9D100201B49087002201449087093
:100AA00030480088401E2F4908803048008805449F
:100AB0001D4820441B49B0F80B200A80407B8870F9
:100AC000194904F11000095C174A401E105C01EB43
:100AD000002024490988884264D1114800880228EE
:100AE00058D101222A491D4800F0A7FA57E000001A
:100AF0001C0000201F000020000000201600002025
:100B0000740F0020050000200C0000207570646147
:100B100074655F636F756E743D25640D0A00000097
:100B20000A00002011000020A4070020CAFDBEDD3D
:100B3000BDD3CAD53A0000001D0000201E000020D1
:100B40006372635F636865636B3A00002558000059
:100B500020206372635F7372633A0000006F0008C5
:100B60009C0121421A0000200E50030818000020AA
:100B70000000010800600308B9CCBCFEB3ACB3F6BA
:100B8000666C617368B4F3D0A10000000000060831
:100B90000600002001224949494800F04EFA4FF072
:100BA000010901E04FF00009464847490A880280E0
:100BB0008978817045480088000A42490871434895
:100BC00000784871280A8871CD71084680F808902D
:100BD00009203F4BCDE900103E480278D4213E4821
:100BE00000F0F8FF00F0FF0A51463B48FFF762FDB6
:100BF0004FF47A7001F06FF8B9F1000F30D0012294
:100C000036492F4800F008FA3448008834490988EA
:100C100088420FD104222E49324800F00EFA4FF4D8
:100C20007A7001F058F830A006F09CFC354803F0CB
:100C30004AFB15E0294800882049098888420FD1DD
:100C400004222349274800F0F8F94FF47A7001F0A4
:100C500042F82DA006F086FC22480E3803F033FB44
:100C6000A01909302F49085C7F2804D100202E49A3
:100C700008702E49087003E0641C4445FFF4C9ADB8
:100C800000BF294801782AA006F06CFC27480178AB
:100C90002EA006F067FC2448007818B1234800789D
:100CA000052807DB2EA006F05DFC01F03AF90020D4
:100CB0001E4908700DF2044DBDE8F08F08000020B9
:100CC000006F0008920F0020110000201A00002081
:100CD0000000002016000020740F00200A000020F1
:100CE000060000200E500308BFAACABCD6B4D0D05C
:100CF000464C41534831D3C3BBA7B4FAC2EB2121C0
:100D00000D0A000000000108BFAACABCD6B4D0D0AA
:100D1000464C41534832D3C3BBA7B4FAC2EB21219E
:100D20000D0A0000A40700201D0000201E00002066
:100D300072785F6275665F6E6F5F636C65616E5F30
:100D4000666C61673D25640D0A00000072785F6281
:100D500075665F636F756E743D25640D0A00000053
:100D600073696D383030615F72785F627566666591
:100D7000725F636C65616E0D0A000000704700BF12
:100D8000FEE700BFFEE700BFFEE700BFFEE77047DB
:100D900070477047704700000CB50020019000902C
:100DA0006C48006840F480306A49086000BF6948B8
:100DB000006800F4003000900198401C01900098F9
:100DC00018B90198B0F5A06FF1D16248006800F43D
:100DD000003010B10120009001E000200090009848
:100DE000012843D15C48006840F010005A4908606F
:100DF0000846006820F0030008600846006840F0DC
:100E000002000860534840685249486008464068FC
:100E100048600846406840F4806048600846406882
:100E200020F47C1048600846406840F4E8104860B0
:100E30000846006840F08070086000BF45480068C0
:100E400000F000700028F9D04248406820F003000C
:100E5000404948600846406840F00200486000BFD2
:100E60003C48406800F00C000828F9D10CBD10B5D2
:100E7000FFF792FF10BD10B53648006840F0010042
:100E800034490860084640683449084031494860A0
:100E900008460068324908402E4908600846006844
:100EA00020F4802008600846406820F4FE00486076
:100EB0004FF41F008860FFF7DAFF4FF00060294908
:100EC000086010BD10B5002100200022214B5B6896
:100ED00003F00C0121B1042906D0082928D107E02C
:100EE000214B224C236027E01F4B204C236023E042
:100EF000184B5B6803F47010164B5B6803F4803288
:100F0000022303EB904022B9194B4343174C236053
:100F10000DE0104B5B6803F4003323B1144B4343E3
:100F2000124C236003E0104B4343104C236003E05A
:100F30000D4B0E4C236000BF00BF064B5B68C3F334
:100F400003130C4CE15C094B1B68CB40074C23603E
:100F500010BD000000100240002002400000FFF819
:100F6000FFFFF6FE08ED00E000127A0034000020DA
:100F700000093D003800002008B50121482001F09B
:100F800097FB0121042001F093FB2020ADF8000025
:100F900010208DF8030003208DF8020069461048E8
:100FA00001F0CAF820210E4801F073F94FF4807067
:100FB000ADF8000069460A4801F0BEF84FF48071B0
:100FC000084801F066F98020ADF80000694606483F
:100FD00001F0B2F88021044801F05BF908BD00007F
:100FE000000C01400018014000080140014608883B
:100FF00070472DE9F04105460E461746002407E0EC
:1010000036F81410284601F022FFAD1C601C84B293
:10101000BC42F5DBBDE8F08130B503460C46154611
:10102000002207E01846FFF7E1FF24F812009B1C9E
:10103000501C82B2AA42F5DB30BD2DE9F05F80463C
:101040008A461746B8F1006F02D33748804501D36E
:10105000BDE8F09F01F0B3FDA8F1006B4FEADB257E
:10106000CBF34909C9F58064A74200DC3C464DE05A
:101070004FF0006101EBC5204A142C49FFF7CCFF6B
:1010800000260BE009EB0600284931F810004FF666
:10109000FF71884200D003E0701C86B2A642F1DBEB
:1010A00000BFA6421BDA4FF0006101EBC52001F042
:1010B000CBFD002608E03AF8160006EB09011B4AB2
:1010C00022F81100701C86B2A642F4DB4FF00061DA
:1010D00001EBC5204A141549FFF78BFF04E02246B7
:1010E00051464046FFF785FFA74200D10FE06D1C37
:1010F0004FF000090AEB440AA044381B87B2B7F549
:10110000806F02DD4FF4806400E03C46B0E700BF32
:1011100001F061FD00BF9BE713B50446012201A960
:101120002046FFF78AFF1CBD0000080800140020BD
:1011300070B505460E46002404E0295DB4A006F013
:1011400011FA641CB442F8D3B2A006F00BFA70BDD9
:1011500070B504460D4600262946204606F073FB6E
:101160000646304670BD70B590B004460E4640212C
:10117000684606F0CAFC35462A462146684606F00F
:1011800045FC2946684600F0B2FE0221A1A000F00D
:10119000AEFE29466846FFF7CBFF10B070BD3EB5E6
:1011A0009DA207CA8DE80700684606F0B9FBC4B2E5
:1011B00021466846FFF7D7FF3EBD1FB599A30FCB69
:1011C0008DE80F00684606F0ABFBC4B221466846C6
:1011D000FFF7C9FF1FBD3EB596A207CA8DE80700FD
:1011E000684606F09DFBC4B221466846FFF7BBFF88
:1011F0003EBD3EB592A207CA8DE80700684606F0DC
:101200008FFBC4B221466846FFF7ADFF3EBD70B507
:101210008EB004460D46202106A806F076FC142266
:101220008AA101A806F037FC01A806F079FB064662
:10123000324601A906A806F02EFC214606A806F0B3
:10124000D9FB874906A806F0D5FB864906A806F013
:10125000D1FB834906A806F0CDFB294606A806F077
:10126000C9FB7F4906A806F0C5FB06A806F058FB97
:10127000C6B2314606A8FFF776FF0EB070BDF0B5D6
:1012800003460C460021002000BF27E0655C1A2DB4
:1012900008D1EF270546401C5F55EA270546401C4C
:1012A0005F551AE0655CEF2D07D1EF270546401C1E
:1012B0005F550546401C5F550FE0655C1B2D08D14E
:1012C000EF270546401C5F55EB270546401C5F5540
:1012D00003E0675C0546401C5F55491C9142D5DB25
:1012E000F0BD2DE9F041ADF5BE6D05460E4640F26C
:1012F000DC5105A806F009FC1A2004905AA207CA7E
:1013000001AB07C301A806F00BFBC7B24FF0000802
:10131000002403E0002005A90855641C40F2DC50BD
:101320008442F7D3394601A8FFF71DFF4FF49670AA
:1013300000F0D1FCB2B2294605A8FFF7A0FF00F0EB
:10134000FF08414605A800F0D2FD012104A8FFF7DF
:101350000AFF0DF5BE6DBDE8F0811FB545A30FCBAB
:101360008DE80F00684606F0DBFAC4B221466846F5
:10137000FFF7F9FE1FBD1FB542A30FCB8DE80F008D
:10138000684606F0CDFAC4B221466846FFF7EBFE88
:101390001FBDF0B504460B460021002000BF2FE022
:1013A0005D5CEF2D27D14D1C5D5DEA2D07D04D1CF6
:1013B0005D5DEF2D03D04D1C5D5DEB2D1BD14D1CF4
:1013C0005D5DEA2D04D11A270546401C675510E0E3
:1013D0004D1C5D5DEF2D04D1EF270646401CA7553F
:1013E00007E04D1C5D5DEB2D03D11B270546401C1E
:1013F0006755491C03E05F5C0546401C6755491C66
:10140000551E8D42CCD85F5D0546401C6755F0BD2A
:10141000256300000D0A000041542B4347415454FA
:101420003F00000041542B435354543D22434D4E42
:101430004554220041542B434949435200000000C7
:1014400041542B43494653520000000041542B4362
:10145000495053544152543D22554450222C2200AD
:10146000D27D0008D47D000841542B434950534598
:101470004E44000041542B434950434C4F53453D8B
:101480003100000041542B434950534855543D31DD
:101490000000000070B502460C46FF25FF2309E05E
:1014A00012F8010B80EA03010648405C80EA05035C
:1014B0000548455C2000A4F10106B4B2F0D143EA2E
:1014C000052070BDD67D0008D67E000810B501212C
:1014D0001D4802F0B2FE20B11C480068401C1B49A8
:1014E00008600121184802F0B9FE10BD7FB505461D
:1014F0000C460121102001F0E8F8ADF80850ADF8D5
:1015000004400020ADF80A00ADF8060001A90E481D
:1015100002F06EF8012241210B4802F0E0FB0121AC
:10152000094802F0C1FB36208DF8000001208DF83B
:10153000010002208DF8020001208DF803006846AA
:1015400000F031FD7FBD0000001000404800002089
:1015500070B50546002405E0601CC4B2C82C01DD4E
:10156000002070BD02213A4801F037FF0028F3D077
:101570002946374801F0DEFE002405E0601CC4B2B5
:10158000C82C01DD0020ECE70121314801F025FFE6
:101590000028F3D02E4801F0CFFEC0B2E1E700B53D
:1015A00087B00121082001F083F80121880301F0B0
:1015B0008CF84FF46040ADF8180018208DF81B002F
:1015C00003208DF81A0006A9224800F0B5FD4FF45B
:1015D0006041204800F05DFE0020ADF804004FF4AB
:1015E0008270ADF806000020ADF808000220ADF8CA
:1015F0000A000120ADF80C004002ADF80E003820C2
:10160000ADF810000020ADF812000720ADF814006E
:1016100001A90F4801F0B8FD01210D4801F059FE64
:10162000FF20FFF795FF07B000BD10B5044608483E
:1016300000884FF6C77108400549088008460088B1
:10164000204308800121024801F043FE10BD000044
:1016500000380040000C014000B587B0012188032C
:1016600001F033F80121382001F022F80420ADF810
:10167000040010208DF8070003208DF8060001A952
:10168000F94800F059FD0421F74800F002FE4FF43C
:101690008050ADF8040010208DF8070003208DF86D
:1016A000060001A9F14800F047FD4FF48051EF48D2
:1016B00000F0EFFD8020ADF8040010208DF8070049
:1016C00003208DF8060001A9E94800F035FD8021CE
:1016D000E74800F0DEFD4FF46040ADF8040018204C
:1016E0008DF8070003208DF8060001A9DF4800F0FF
:1016F00023FD4FF46041DD4800F0CBFD0020ADF844
:1017000008004FF48270ADF80A000020ADF80C001C
:10171000ADF80E00ADF810004FF40070ADF81200F7
:101720003820ADF814000020ADF816000720ADF801
:10173000180002A9CF4801F027FD0121CD4801F092
:10174000C8FDFF20FFF704FF07B000BD10B5FFF78D
:1017500083FF0820FFF769FF40F2CF214FF47A7032
:10176000FFF7C4FE0020C44908600A2000F0B3FA65
:101770000120C249C1F89C010A2000F0ACFA10BD5A
:1017800070B505460C4600260020BD49086004F0EF
:101790001F0040EA05063046FFF7DAFEFF20FFF79C
:1017A000D7FE064604F0800018B1FF20FFF7D0FEF8
:1017B00006460120B2490860304670BD2DE9F0416F
:1017C00004460D46164600270020AD49086005F086
:1017D0001F0040EA04073846FFF7BAFE3046FFF71D
:1017E000B7FE0120A749C1F8B001BDE8F08170B58E
:1017F00005460C460020A24908603A20FFF7A8FEE3
:1018000005E06D1E0020FFF7A3FE2070641C002D74
:10181000F7D10020207001209949086070BD70B593
:1018200004460D460020964908607A20FFF790FE96
:1018300004E0641E2878FFF78BFE6D1C002CF8D1A5
:1018400001208F49086070BD10B5044604F06000A7
:101850008D49097888420ED003221F21A020FFF76E
:10186000ADFFC4F341121F218020FFF7A7FF04F052
:1018700060008549087010BD10B504462046FFF78A
:10188000E3FF21460020FFF77BFF10BD70B5044643
:101890000D462046FFF7D8FF2A4621464020FFF795
:1018A0008DFF70BD70B505460C4600262946D42034
:1018B000FFF7ECFFE1B2D620FFF7E8FFC4F3072102
:1018C000D720FFF7E3FF01E0701C86B2EA20FFF7A4
:1018D000D3FF00F0010018B140F6FF708642F3DB41
:1018E00070BD10B57220FFF7C7FF10BD70B504467C
:1018F0000025FFF72BFFFF2200211046FFF75EFFB8
:1019000004E0681C85B2012000F0E5F91D20FFF716
:10191000B3FF00F0010018B941F288308542F0DBD6
:1019200041F28830854201DB012070BDFFF7D9FF0D
:101930000646314655A005F015FE002059490860BD
:1019400000210820FFF7A2FF00210920FFF79EFFDA
:1019500000210C20FFF79AFF00210D20FFF796FFD2
:1019600010210A20FFF792FF1A210B20FFF78EFFAC
:1019700011210420FFF78AFF1A210520FFF786FFB7
:10198000FF210620FFF782FF1F210720FFF77EFFC0
:10199000B0213820FFF77AFF3F212820FFF776FF9C
:1019A00030212920FFF772FFF9213020FFF76EFF69
:1019B000F7213120FFF76AFF0D21C020FFF766FFF6
:1019C0000021C120FFF762FF3322C2218020FFF7F0
:1019D000F5FE1221C620FFF759FF0C21C720FFF7A3
:1019E00055FF1521C420FFF751FFEE21CA20FFF754
:1019F0004DFF0521CB20FFF749FF2178E420FFF7B9
:101A000045FF6178E520FFF741FFA178E220FFF76D
:101A10003DFFE178E320FFF739FF2179E020FFF770
:101A200035FF6179E120FFF731FF4FF4807100202D
:101A3000FFF738FF4FF480711020FFF733FF1F20AE
:101A4000FFF702FFC0221B218020FFF7B7FE042210
:101A50001F218020FFF7B2FEE420FFF70DFF217861
:101A6000884221D1002060E700140140000C0140B1
:101A700000100140003800409C0122420000224238
:101A8000B0812142008021424C000020454E43326B
:101A9000384A36302056657273696F6E3A25640D88
:101AA0000A0000005000002001203EE770B5044607
:101AB0000D4611210220FFF7E9FE1A210320FFF74E
:101AC000E5FE11202044C1B20620FFF7DFFE41F6FB
:101AD00011202044C0F307210720FFF7D7FE002282
:101AE00011467A20FFF76AFE29462046FFF797FE47
:101AF00008221F218020FFF761FE1C20FFF7BCFE9B
:101B000000F0020020B108221F21A020FFF756FE9E
:101B100070BD2DE9F04105460F463920FFF7ACFEB8
:101B200010B90020BDE8F081294801780020FFF7B6
:101B3000ADFE27480088C0F307210120FFF7A6FE6D
:101B400000213A20FFF71CFE2149086000213A20BD
:101B5000FFF716FE1E49096841EA00201C4908608B
:101B600000213A20FFF70CFE044600213A20FFF73F
:101B700007FE44EA0024241F00213A20FFF700FE5C
:101B8000064600213A20FFF7FBFD46EA0026681EC4
:101B9000A04200D26C1E06F0800008B9002403E0C9
:101BA00039462046FFF723FE094801780C20FFF74D
:101BB0006DFE07480088C0F307210D20FFF766FE81
:101BC00040221E218020FFF7F9FD2046AAE70000F1
:101BD000500000202DE9F05F0446894617469A46DA
:101BE000DDE90AB6002514B9681EBDE8F09F254658
:101BF0007E2028700E20687085F80290EF70380AF9
:101C00002871301D6871000AA871DAF80000C5F863
:101C10000700BBF1000F06D02EB13246594605F140
:101C20000B0005F0F3FE06F10A0081B2601CFFF71D
:101C300031FC804605F10B0000F806804FEA1822BF
:101C4000711C42547F22B11C425406F10E0002491D
:101C5000088008460088C8E75400002010B56FF0DF
:101C6000040000F0EAF92E4800682E49B0FBF1F0BC
:101C70002D4908700846007800EB4001C1EBC01008
:101C80004FF6FF7101EAC0002849088010BD0146E7
:101C9000254A12784A434FF0E0235A6100229A61A4
:101CA0001A46126942F001021A6100BF4FF0E022A9
:101CB000106900F001021AB100F48032002AF5D058
:101CC0004FF0E022126922F001024FF0E0231A6186
:101CD00000229A6170470146144A12884A434FF025
:101CE000E0235A6100229A611A46126942F0010209
:101CF0001A6100BF4FF0E022106900F001021AB132
:101D000000F48032002AF5D04FF0E022126922F070
:101D100001024FF0E0231A6100229A61704700002F
:101D20003400002000127A005600002058000020E5
:101D3000014600BF704700BF804A128802F040028F
:101D4000002AF9D0C2B27D4B1B1D1A80704710B516
:101D500040F22551794800F0CFFE88B1774800F075
:101D60004BFEC4B276480088B0F5806F08DA75483B
:101D700073490988445472480088401C704908809F
:101D800010BD10B586B00446012144F2040000F0F5
:101D90008FFC4FF40070ADF8140003208DF816008E
:101DA00018208DF8170005A9674800F0C5F94FF411
:101DB0008060ADF8140004208DF8170005A9624872
:101DC00000F0BAF901940020ADF80800ADF80A005F
:101DD000ADF80C00ADF810000C20ADF80E0001A914
:101DE000564800F00CFD25208DF8000003208DF8EA
:101DF00001008DF8020001208DF80300684600F014
:101E0000D2F8012240F225514C4800F090FD01210A
:101E10004A4800F080FD06B010BD10B586B00446FB
:101E20000121C80400F051FC0121102000F040FC09
:101E30004FF48060ADF8140003208DF816001820D0
:101E40008DF8170005A9414800F076F94FF40060BD
:101E5000ADF8140004208DF8170005A93B4800F0E8
:101E60006BF901940020ADF80800ADF80A00ADF858
:101E70000C00ADF810000C20ADF80E0001A934489C
:101E800000F0BDFC34208DF8000003208DF8010027
:101E900002208DF8020001208DF80300684600F052
:101EA00082F8012240F22551294800F040FD01212D
:101EB000274800F030FD06B010BD10B540F22551A6
:101EC000234800F019FE78B122480068B0F5806F11
:101ED0000AD21F4800F090FDC1B21E480468601C81
:101EE0001C4A10601C48015510BD8180704710B518
:101EF000024600200CE000BF154B1B8803F0400396
:101F0000002BF9D0135C124C241D2380431CD8B243
:101F10008842F0DB10BD01460E48006808600E489C
:101F20007047002003E000210B4A1154401CB0F51B
:101F3000806FF8D30021074A1160704700380140D4
:101F40006200002000100020000801400010014045
:101F5000004C004064000020001C0020094880471D
:101F600009480047FEE7FEE7FEE7FEE7FEE7FEE77B
:101F7000FEE7FEE7FEE7FEE704480549054A064B93
:101F800070470000770E000831010008C0410020B2
:101F9000C0470020C0430020C04300203149014316
:101FA000314A1160704770B5002100230F22C478B8
:101FB00004B32D4C246804F4E064C4F5E064210A01
:101FC000C1F10403CA40447804FA03F18478144050
:101FD00021430901254C0678A155047804F01F051A
:101FE0000124AC4005786D11AD0005F1E025C5F880
:101FF000004109E0047804F01F050124AC401C4DA9
:102000000678761145F8264070BD1A4A0A40024308
:10201000154B1B1F1A60704739B1134A121D126805
:102020000243114B1B1D1A6006E00F4A121D126875
:1020300082430D4B1B1D1A607047042808D14FF0D6
:10204000E021096941F004014FF0E022116107E04D
:102050004FF0E021096921F004014FF0E022116105
:10206000704700000000FA050CED00E000E400E01D
:1020700080E100E080FFFF1F10B50446CC48844299
:1020800008D10121042000F02DFB0021042000F0E4
:1020900029FB46E0C748844208D10121082000F00E
:1020A00021FB0021082000F01DFB3AE0C2488442D9
:1020B00008D10121102000F015FB0021102000F0B4
:1020C00011FB2EE0BD48844208D10121202000F000
:1020D00009FB0021202000F005FB22E0B8488442E3
:1020E00008D10121402000F0FDFA0021402000F03D
:1020F000F9FA16E0B348844208D10121802000F0AB
:10210000F1FA0021802000F0EDFA0AE0AE488442A6
:1021100007D10121801500F0E5FA0021A01500F09B
:10212000E1FA10BD10B50121084600F0DBFA0021EC
:10213000012000F0D7FA10BD2DE9F041024600253C
:102140000026002000230024002791F803C00CF093
:102150000F0591F803C00CF0100CBCF1000F03D078
:1021600091F802C04CEA050591F800C0BCF1000FDF
:1021700031D0146800202BE04FF0010C0CFA00F372
:10218000B1F800C00CEA03069E4220D183004FF054
:102190000F0C0CFA03F7BC4305FA03FC4CEA0404E9
:1021A00091F803C0BCF1280F06D14FF0010C0CFAD6
:1021B00000FCC2F814C00AE091F803C0BCF1480F5B
:1021C00005D14FF0010C0CFA00FCC2F810C0401C05
:1021D0000828D1D31460B1F800C0BCF1FF0F34DD82
:1021E000546800202EE000F1080C4FF0010808FAB6
:1021F0000CF3B1F800C00CEA03069E4221D1830023
:102200004FF00F0C0CFA03F7BC4305FA03FC4CEA41
:10221000040491F803C0BCF1280F05D100F1080CAB
:1022200008FA0CF8C2F8148091F803C0BCF1480F0A
:1022300007D100F1080C4FF0010808FA0CF8C2F8B9
:102240001080401C0828CED35460BDE8F0814FF6C2
:10225000FF710180022181700421C1707047024624
:10226000002093680B400BB1012000E00020704774
:102270000146886880B2704702460020D3680B4050
:102280000BB1012000E0002070470146C86880B211
:10229000704701617047416170470AB1016100E018
:1022A00041617047C16070474FF480320A438261D8
:1022B0008161826182698269704702460020434BD6
:1022C00018684FF68073184040EA021008433F4BED
:1022D000186070473E49C8617047F0B50A46002350
:1022E00000240021002500F00046B6F1004F02D185
:1022F000364EF16901E0354E7168C0F3034583B293
:1023000000F44016B6F5401F08D121F070612F4E41
:10231000766826F070662D4F7E6012E000F480161D
:10232000B6F5801F06D1032606FA05F4A14341F055
:10233000706106E0460D360103FA06F6B14341F03E
:10234000706122B1460D360103FA06F6314300F002
:102350000046B6F1004F02D11C4EF16101E01B4E68
:102360007160F0BD30B500228B071C0F0F2303FAFC
:1023700004F2164B08338C1053F824309343134C5B
:1023800008348D1044F8253023468C1053F824303F
:102390008C07240F00FA04F423430C4C08348D10EE
:1023A00044F8253030BD0A49DC3108607047000030
:1023B00000080140000C01400010014000140140E1
:1023C00000180140001C01400020014000000140B5
:1023D00000002042DF48006840F00100DD4908604D
:1023E00008464068DC490840DA4948600846006809
:1023F000DA490840D74908600846006820F4802080
:1024000008600846406820F4FE0048604FF41F0052
:1024100088607047CF49096821F48031CD4A116046
:102420001146096821F480211160B0F5803F03D086
:10243000B0F5802F0ED106E0C649096841F480311D
:10244000C44A116007E0C349096841F4A021C14AA8
:10245000116000E000BF00BF704710B501460022C8
:10246000002300204A11012A02D1BA4C236806E059
:10247000022A02D1B74C236A01E0B64C636A01F02C
:102480001F02012494401C400CB1012000E00020F8
:1024900010BD38B5002000900024002500BF312079
:1024A000FFF7DBFF05460098401C00900098B0F550
:1024B000A06F01D0002DF2D03120FFF7CEFF08B180
:1024C000012400E00024204638BD01460020A14A36
:1024D000106820F0F80040EAC10010607047A04981
:1024E00008607047024600209A4B586820F47C1020
:1024F00042EA01031843974B5860704798490866B1
:10250000704701460020934A506820F003000843BA
:10251000506070478F48406800F00C0070470146DB
:1025200000208C4A506820F0F0000843506070474B
:1025300001460020874A506820F4E060084350605C
:10254000704701460020834A506820F4605040EAFA
:10255000C1005060704729B17E4A527A02437D4BD8
:102560005A7204E07B4A527A82437A4B5A7270471D
:102570007B49D8310860704701460020754A506891
:1025800020F440400843506070470021714A2032D7
:102590001170704A82F82010012802D004280AD154
:1025A00004E001216B4A2032117005E00521694ADF
:1025B0002032117000E000BF00BF70476949086019
:1025C00070476449096A0143624A1162704765496C
:1025D00044390860704730B50021002200240023F0
:1025E0005C4D6D6805F00C0121B1042905D0082966
:1025F00023D105E05C4D056022E05B4D05601FE0E6
:10260000544D6D6805F47012524D6D6805F48034B8
:10261000022505EB92421CB9544D554305600BE071
:102620004C4D6D6805F400351DB1504D55430560A6
:1026300002E04D4D5543056002E04B4D056000BF83
:1026400000BF444D6D6805F0F0010909484D6B5C11
:102650000568DD4045603F4D6D6805F4E061090A9D
:10266000434D6B5C4568DD4085603A4D6D6805F40F
:102670006051C90A3E4D6B5C4568DD40C560354D13
:102680006D6805F44041890B3A4D6B5CC568B5FB3C
:10269000F3F5056130BD29B12E4A526902432D4B35
:1026A0005A6104E02B4A526982432A4B5A617047AF
:1026B00029B1284A92690243264B9A6104E0254ACF
:1026C00092698243234B9A61704729B1214AD269AA
:1026D0000243204BDA6104E01E4AD26982431D4B5B
:1026E000DA61704729B11B4AD2680243194BDA609C
:1026F00004E0184AD2688243164BDA60704729B169
:10270000144A12690243134B1A6104E0114A126918
:102710008243104B1A617047124940390860704774
:102720000F49C86470470B49C87170470948406A2F
:1027300040F0807007494862704701460020054A12
:1027400092680A400AB1012000E000207047014968
:1027500088727047001002400000FFF8FFFFF6FE8D
:10276000000042428004424200127A0000093D000B
:10277000680000207800002010B50446FB48844221
:1027800009D101218803FFF7ADFF00214FF48040FC
:10279000FFF7A8FF32E0F648844209D1012148043E
:1027A000FFF7ADFF00214FF40030FFF7A8FF25E051
:1027B000F048844209D101218804FFF7A0FF0021DD
:1027C0004FF48020FFF79BFF18E0EB48844209D1CB
:1027D0000121C804FFF793FF00214FF40020FFF709
:1027E0008EFF0BE0E548844208D101210805FFF780
:1027F00086FF00214FF48010FFF781FF10BD2DE907
:10280000F04786B005460E460024A24600BFA1460A
:102810000027B08900B100BF2F462C8A4CF6FF700C
:102820000440F08804432C82AC894EF6F310044037
:10283000B08831890843718908430443AC81AC8A6C
:102840004FF6FF400440B0890443AC8201A8FFF773
:10285000C2FEC648874202D1DDF810A001E0DDF8D3
:102860000CA0A88900F4004040B10AEBCA0000EBBC
:102870000A1031684900B0FBF1F807E00AEBCA0022
:1028800000EB0A1031688900B0FBF1F86420B8FB56
:10289000F0F004012009642101FB1089A88900F4EB
:1028A000004040B1322000EBC900B0FBF1F000F075
:1028B0000700044308E0322000EB09106421B0FB5C
:1028C000F1F000F00F0004432C8106B0BDE8F08762
:1028D0004FF41651016000218180C18001810C21DB
:1028E000418100218181704710B502460020108A85
:1028F0004FF2FF0318400B884C8823438C882343F6
:10290000CC8823431843108210BD002101804180F0
:102910008180C180704721B1828942F40052828156
:1029200004E082894DF6FF731A4082817047F0B54A
:102930000346002400260025002040F66A17B9420D
:1029400000D100BF1846C1F3421401F01F06012751
:1029500007FA06F5012C01D10C3004E0022C01D15C
:10296000103000E014301AB107682F43076002E00E
:102970000768AF430760F0BD1AB1838A0B438382B7
:1029800002E0838A8B4383827047028A4FF6F0739A
:102990001A400282028A0A430282704782894FF2F9
:1029A000FF731A40828182890A438281704721B174
:1029B000828942F00202828104E082894FF6FD732F
:1029C0001A4082817047028A4FF6DF731A400282F2
:1029D000028A0A430282704721B1028A42F480428D
:1029E000028204E0028A4BF6FF731A4002827047AB
:1029F000C1F308028280704701468888C0F308004E
:102A00007047818941F0010181817047028BD2B208
:102A10000283028B42EA012202837047028B02F496
:102A20007F420283028B0A430283704721B1828A6C
:102A300042F02002828204E0828A4FF6DF731A405D
:102A40008282704721B1828A42F01002828204E0C1
:102A5000828A4FF6EF731A408282704721B1828AD0
:102A600042F00802828204E0828A4FF6F7731A402D
:102A70008282704721B1828942F40042828103E060
:102A80008289C2F30E028281704721B1828A42F4A8
:102A90000062828204E0828A4FF2FF731A408282CF
:102AA0007047828A4FF6FB731A408282828A0A43F9
:102AB0008282704721B1828A42F00202828204E05F
:102AC000828A4FF6FD731A408282704702460020C8
:102AD000B1F5007F00D100BF13880B400BB101207E
:102AE00000E00020704701F40072B2F5007F00D1D1
:102AF00000BFCA430280704770B50246002400231D
:102B00000025002040F66A16B14200D100BFC1F393
:102B1000421501F01F03012606FA03F3012D02D12D
:102B20009689334006E0022D02D1168A334001E037
:102B3000968A33400C12012606FA04F416883440B3
:102B400013B10CB1012000E0002070BD10B50022CF
:102B5000002340F66A14A14200D100BF0A120124EA
:102B60009440A3B2DC43048010BD00000038014053
:102B70000044004000480040004C0040005000402D
:102B800001460020FE4A106800F03800084310603B
:102B90007047FB49096821F00801F94A11601146A4
:102BA0000968014311607047F549096821F0100177
:102BB000F34A116011460968014311607047F148FA
:102BC000EF494860F04848607047EE48EC4948607B
:102BD000ED4848607047EA48006940F08000E849E5
:102BE00008617047E648006940F08000E4490861E8
:102BF00070470420E249C96801F0010109B10120D0
:102C00000EE0DF49C96801F0040109B1022007E0C4
:102C1000DB49C96801F0100109B1032000E004207C
:102C2000704700B502460423FFF7E3FF034603E0C5
:102C3000FFF7DFFF0346521E012B01D1002AF7D117
:102C400002B90523184600BD30B5044604254FF4EB
:102C50003020FFF7E6FF0546042D17D1C84800696C
:102C600040F00200C649086108464461006940F02E
:102C7000400008614FF43020FFF7D3FF0546C048FD
:102C8000006941F6FD710840BD490861284630BD24
:102C900010B504244FF43020FFF7C3FF0446042C82
:102CA00016D1B748006940F00400B54908610846EC
:102CB000006940F0400008614FF43020FFF7B1FF99
:102CC0000446AF48006941F6FB710840AC49086111
:102CD000204610BD00B502460423FFF78AFF0346D5
:102CE00003E0FFF786FF0346521E012B01D1002AA5
:102CF000F7D102B90523184600BD10B504244FF4DE
:102D00003020FFF7E7FF0446042C16D19C480069E9
:102D100040F004009A4908610846006940F040000C
:102D200008614FF43020FFF7D5FF0446944800694E
:102D300041F6FB71084092490861204610BD002011
:102D40008F49C96901F0020109B1012000E00020AA
:102D5000704730B5A5250424FFF7F1FF00B1002529
:102D60004FF43020FFF75DFF0446042C3AD185482C
:102D700083498860844888600846006940F02000E4
:102D800008610846006940F0400008614FF43020B7
:102D9000FFF747FF0446042C1BD17948006941F630
:102DA000DF710840764908610846006940F010006C
:102DB000086176480580E002FFF733FF0446052CE2
:102DC00010D06F48006941F6EF7108406C49086106
:102DD00008E0052C06D06A48006941F6EF7108400A
:102DE00067490861204630BD78B506460C46042583
:102DF00000200090E802FFF714FF0546042D24D1BF
:102E00005F48006940F001005D4908613480E802D4
:102E1000FFF707FF0546042D10D1B01C0090200CD1
:102E200000990880E802FFF7FCFE05465448006957
:102E300041F6FE7108405249086106E050480069B9
:102E400041F6FE7108404E490861284678BD70B5CC
:102E500004460D460426F002FFF7E3FE0646042E64
:102E600011D14748006940F00100454908612580BB
:102E7000F002FFF7D6FE06464148006941F6FE71B2
:102E800008403F490861304670BD70B505460E46A2
:102E90000424E002FFF7C5FE0446042C17D139488C
:102EA00037498860384888600846006940F010005B
:102EB00008612E80E002FFF7B4FE0446052C06D020
:102EC0002F48006941F6EF7108402D4908612046FE
:102ED00070BD2DE9F04304464FF6FF763746B04605
:102EE000B1460425E443E6B2C4F30727C4F3074818
:102EF0004FEA1469E802FFF794FE0546042D49D114
:102F000020481F498860204888600846006940F0D2
:102F100010000861FF2E06D01C4808300680E80229
:102F2000FFF77FFE0546042D08D1FF2F06D0174876
:102F30000A300780E802FFF774FE0546042D0AD127
:102F4000B8F1FF0F07D011480C30A0F80080E8025C
:102F5000FFF767FE0546042D0AD1B9F1FF0F07D030
:102F60000A480E30A0F80090E802FFF75AFE054626
:102F7000052D0FD00248006941F6EF71084007E0C7
:102F80000020024023016745AB89EFCD00F8FF1F09
:102F9000664908612846BDE8F08330B5054604243B
:102FA0004FF43020FFF73DFE0446042C41D1604829
:102FB0005E4988605F4888600846006940F02000EC
:102FC00008610846006940F0400008614FF4302075
:102FD000FFF727FE0446042C22D15448006941F62D
:102FE000DF710840514908610846006940F010004F
:102FF00008611DB100205049088002E0A5204E491B
:1030000008804FF43020FFF70CFE0446052C10D04A
:103010004648006941F6EF7108404449086108E0FC
:10302000052C06D04148006941F6DF7108403F4950
:103030000861204630BDF0B505460E46174604240B
:103040003B483A4988603B488860E002FFF7E9FD69
:103050000446042C19D13548006940F0100033496A
:10306000086147F0F800304328433349891C088041
:10307000E002FFF7D6FD0446052C06D02B48006978
:1030800041F6EF710840294908612046F0BD274804
:10309000C069800870472548006A704700202349AE
:1030A000096801F0200109B1012000E0002070470B
:1030B00029B11E4A126902431C4B1A6104E01B4AE3
:1030C00012698243194B1A61704701460020012999
:1030D00008D1164AD26902F001020AB1012008E0C3
:1030E000002006E0114AD2680A400AB1012000E03F
:1030F000002070470D49C860704704200B49C9681B
:1031000001F0010109B101200EE00849C96801F090
:10311000040109B1022007E00449C96801F0100167
:1031200009B1032000E004207047000000200240A5
:1031300023016745AB89EFCD00F8FF1F10B50446AA
:10314000BE48844208D101218014FFF7CBFA002148
:10315000A014FFF7C7FA16E0B948844208D101214C
:103160000014FFF7CCFA00212014FFF7C8FA0AE098
:10317000B448844207D10121C013FFF7C0FA0021EF
:10318000E013FFF7BCFA10BD10B50022028802F46C
:1031900041520B884C8823438C882343CC8823439B
:1031A0000C8923434C8923438C892343CC892343B3
:1031B0001A430280838B4FF2FF74234083830B8A70
:1031C000038210BD2DE9F04F85B005460C464FF047
:1031D000000902274FF000084FF0010B0026B2460D
:1031E000A88B4FF240010840A88302202884B5F83C
:1031F0001C90A068022801D100BF38E0A08810B957
:103200004FF0010B01E04FF0020B8D48854200D1D9
:1032100000E000BF6846FFF7DEF9DDF800A0E088B7
:10322000B0F5007F0AD14FEA1A2000EB8000400081
:10323000A168B0FBF1F0401D86B20BE04FEA4B10E5
:10324000BAFBF0F000EB80004000A168B0FBF1F0A9
:10325000401D86B20A20B6FBF0F606F00108A6EB88
:103260000800C0F34F074FF6FF7000EA0828022F4E
:1032700001DBFF2F02DD02274FF00008E08840EA63
:10328000080038432884A088A1890843618808433E
:103290002188084340F4006040EA0909A5F81C9021
:1032A00005B0BDE8F08F0021018041808180C180A0
:1032B000018141818181C181072101827047002103
:1032C000018041808180C180022181600021818153
:1032D000704721B1028842F04002028004E0028877
:1032E0004FF6BF731A400280704721B1828B42F4BF
:1032F0008062828304E0828B4FF6FF331A40828320
:10330000704730B5002400230C110125A540ABB255
:103310001AB185881D43858002E085889D4385809C
:1033200030BD1AB183880B43838002E083888B43CE
:1033300083807047818170470146888970474FF6C6
:10334000FF62914204D0028842F48072028004E05D
:1033500002884FF6FF631A400280704721B18288CD
:1033600042F00402828004E082884FF6FB731A4028
:103370008280704702884FF2FF731A4002800288F1
:103380000A4302807047018841F4805101807047F0
:1033900021B1028842F40052028004E002884DF616
:1033A000FF731A400280704702460020012901D0B5
:1033B000108B00E0908A70470146088A7047B1F58B
:1033C000804F04D1028842F48042028004E00288E7
:1033D0004BF6FF731A4002807047024600201389A3
:1033E0000B400BB1012000E000207047CA4302816E
:1033F0007047F0B50246002000240023002501F0AC
:103400000F070126BE40B4B20B1101269E40B3B295
:10341000968806EA03051689264016B10DB10120EB
:1034200000E00020F0BD10B5002201F00F040123E0
:10343000A3409AB2D343038110BD00000030014085
:1034400000380040003C004010B50446FE4884426D
:1034500008D10121C014FFF745F90021E014FFF75E
:1034600041F9C4E0B4F1804F08D101210846FFF7CB
:1034700046F900210120FFF742F9B8E0F348844201
:1034800008D101210220FFF73AF900210220FFF7BD
:1034900036F9ACE0EE48844208D101210420FFF760
:1034A0002EF900210420FFF72AF9A0E0E948844220
:1034B00008D101210820FFF722F900210820FFF799
:1034C0001EF994E0E448844208D101211020FFF75E
:1034D00016F900211020FFF712F988E0DF48844236
:1034E00008D101212020FFF70AF900212020FFF751
:1034F00006F97CE0DA48844208D101214014FFF744
:10350000F1F800216014FFF7EDF870E0D54884422F
:1035100009D10121C804FFF7E5F800214FF400208C
:10352000FFF7E0F863E0D048844209D101210805A3
:10353000FFF7D8F800214FF48010FFF7D3F856E0DA
:10354000CA48844209D101214805FFF7CBF8002180
:103550004FF40010FFF7C6F849E0C548844208D18F
:1035600001214020FFF7CBF800214020FFF7C7F8EA
:103570003DE0C048844208D101218020FFF7BFF818
:1035800000218020FFF7BBF831E0BB48844208D11E
:1035900001218015FFF7B3F80021A015FFF7AFF860
:1035A00025E0B648844209D101210804FFF79AF8C2
:1035B00000214FF48030FFF795F818E0B0488442BE
:1035C00009D101214804FFF78DF800214FF40030A4
:1035D000FFF788F80BE0AB48844208D1012188044A
:1035E000FFF780F800214FF48020FFF77BF810BD33
:1035F00000220288944B98420ED0994B98420BD0EF
:10360000B0F1804F08D0914B984205D0904B984232
:1036100002D0904B984204D14FF68F731A404B88DA
:103620001A438D4B984207D08C4B984204D04FF6EA
:10363000FF431A40CB881A4302808B8883850B880E
:103640000385814B98420BD0854B984208D08B4B19
:10365000984205D08A4B984202D08A4B984201D1B9
:103660000B7A038601238382704770B50024002201
:103670000023058C4FF6FE7635400584028C838846
:10368000048B4FF68F752C40B51E2C400D882C43B3
:10369000751E2A400D892A434D882A436A4DA84247
:1036A0000BD06F4DA84208D0744DA84205D0744D80
:1036B000A84202D0734DA84213D14FF6F7752A40A5
:1036C0004D892A434FF6FB752A408D882A434FF6D1
:1036D000FF652B404FF6FF552B408D892B43CD893D
:1036E0002B4383800483CD888586028470BD70B5AA
:1036F000002400220023058C4FF6EF763540058428
:10370000028C8388048B48F6FF752C404FF6FF45EA
:103710002C400D884FF6FF7606EA05252C434FF620
:10372000DF752A400D8906EA05152A434D8806EA09
:1037300005152A43444DA84202D0494DA8421DD147
:103740004FF67F752A404D894FF6FF7606EA05153C
:103750002A434FF6BF752A408D8806EA05152A438D
:103760004FF6FF352B404FF2FF752B408D8906EA4F
:1037700085052B43CD8906EA85052B438380048389
:10378000CD880587028470BD70B500240022002317
:10379000058C4FF6FF6635400584028C8388848B48
:1037A0004FF68F752C404FF6FC752C400D882C433E
:1037B0004FF6FF552A400D894FF6FF7606EA05259C
:1037C0002A434D8806EA05252A431F4DA84202D008
:1037D000234DA8421DD14FF2FF752A404D894FF667
:1037E000FF7606EA05252A434FF6FF352A408D88E5
:1037F00006EA05252A434EF6FF752B404DF6FF7568
:103800002B408D8906EA05152B43CD8906EA05155F
:103810002B4383808483CD888587028470BD70B5F7
:10382000002200230024058C4EF6FF7635400584E7
:10383000038C8488828B48F6FF752A404FF6FF453B
:103840002A400D8820E00000002C014000040040C8
:1038500000080040000C0040001000400014004030
:1038600000340140004C0140005001400054014030
:1038700000180040001C00400020004000400140B3
:1038800000440140004801404FF6FF7606EA052556
:103890002A434DF6FF752B400D8906EA05352B436B
:1038A0004D8806EA05352B43FA4DA84202D0FA4D61
:1038B000A84208D14BF6FF752C408D894FF6FF7654
:1038C00006EA85152C4384808283CD88A0F8405079
:1038D000038470BD828B4FF2FF331A408283828B48
:1038E0004FF6FF7303EA01231A4382837047F0B552
:1038F0000C461546002200210026078C4EF6FF7C60
:1039000007EA0C070784828B018C4FF6FF7707EAE2
:10391000043640F6FF473A404FF6FF7707EA05279F
:103920003A434FF6FF7707EA03373A43D94FB84295
:103930000ED0D94FB8420BD0B0F1804F08D0D74F3E
:10394000B84205D0D64FB84202D0D64FB84206D1C1
:103950004DF6FF77394046F48057394305E047F686
:10396000FF57394044F48057394382830184F0BDC6
:10397000828B4FF6F3731A408283828B0A438283D1
:103980007047F0B50C461546002200210026078C32
:103990004FF6FF6C07EA0C070784828B018C4FF609
:1039A000FF7707EA04264FF60C773A404FF6FF7789
:1039B00007EA03172F433A43B64FB8420ED0B64F2B
:1039C000B8420BD0B0F1804F08D0B44FB84205D008
:1039D000B34FB84202D0B34FB84206D14FF6FF57AB
:1039E000394046F48077394305E04FF2FF573940BC
:1039F00044F48077394382830184F0BD028B4FF217
:103A0000FF331A400283028B4FF6FF7303EA012350
:103A10001A4302837047F0B50C4615460022002178
:103A20000026078C4FF6EF7C07EA0C070784028B11
:103A3000018C4FF6FF7707EA041640F6FF473A403D
:103A40004FF6FF7707EA03373A434FF6FF7707EA67
:103A500005273A438F4FB8420ED08F4FB8420BD054
:103A6000B0F1804F08D08D4FB84205D08C4FB8428E
:103A700002D08C4FB84206D14FF6DF77394046F07E
:103A80001007394305E04FF65F77394044F01007DF
:103A9000394302830184F0BD028B4FF6F3731A4061
:103AA0000283028B0A4302837047F0B50C46154629
:103AB00000220021068C4FF6FE773E400684028BE2
:103AC000018C4FF60C7632407E1C06EA03162E431C
:103AD0003243704EB0420ED06F4EB0420BD0B0F1B8
:103AE000804F08D06D4EB04205D06D4EB04202D02E
:103AF0006C4EB04206D14FF6FD76314044F00106DF
:103B0000314305E04FF6F576314044F0010631438C
:103B100002830184F0BD70B505460C465D488542C0
:103B20000ED05D4885420BD0B5F1804F08D05B4880
:103B3000854205D05A48854202D05A48854200D174
:103B400000E000BF208850B92389A28861882846F8
:103B5000FFF7ABFFE1882846FFF79EFF25E02088AE
:103B600004280AD12389A28861882846FFF753FFD9
:103B7000E1882846FFF742FF17E0208808280AD18D
:103B80002389A28861882846FFF7FBFEE188284642
:103B9000FFF7EEFE09E02389A28861882846FFF737
:103BA000A6FEE1882846FFF795FE70BD2DE9F0419D
:103BB00005460C4600260127608808B9022600E069
:103BC0000026A088012801D1022700E001272088D3
:103BD000A0B92389A28861882846FFF766FFE1889B
:103BE0002846FFF759FF23893A4631462846FFF712
:103BF00012FFE1882846FFF701FF13E02389A2881E
:103C000061882846FFF707FFE1882846FFF7F6FEA0
:103C100023893A4631462846FFF747FFE188284680
:103C2000FFF73AFFBDE8F0810A884B881A438B887A
:103C30001A43CB881A430B891A434B891A438B8941
:103C40001A43A0F8442070474FF6FF71818000218D
:103C50000180C18041800172704700210180418054
:103C60008180C180018141818181C18170470021B2
:103C700001804180012181800021C1800181704744
:103C80000021018041808180C18001814181818149
:103C900070470000002C0140003401400004004047
:103CA00000080040000C004021B1028842F00102EF
:103CB000028004E002884FF6FE731A4002807047CB
:103CC00031B1B0F8442042F40042A0F8442005E0AD
:103CD000B0F84420C2F30E02A0F8442070471AB195
:103CE00083890B43838102E083898B4383817047FF
:103CF0008182704741EA0203A0F8483070471AB148
:103D000083890B43838102E083898B4383817047DE
:103D100001894FF6F8721140018170470A4600216F
:103D200001894FF68F73194011430181704730B5F7
:103D300004460D4629462046FFF7F0FF208940F053
:103D40000700208130BD2DE9F04104460D4616469E
:103D50001F46602D06D13B46012231462046FFF723
:103D60005AFE05E03B46012231462046FFF79DFE04
:103D700029462046FFF7D2FF208940F00700208126
:103D8000BDE8F08130B50C4600210189C9B24FF67B
:103D9000FF7505EA0325154325432943018130BDFD
:103DA0002DE9F04105460E46174698460024434645
:103DB0003A4631462846FFF7E5FF2C894FF6F87062
:103DC000044044F007044FF68F70044044F0700440
:103DD0002C81BDE8F081F0B504460D4616461F461D
:103DE0003B46324629462046FFF7CCFF208940F467
:103DF00080402081F0BD0185828270470A46002103
:103E000001884FF68F731940114301807047F0B558
:103E10000C4615461E460021002200230189028B14
:103E2000038C4FF6F877394021434FF6FC473A4070
:103E300040F201173A434FF6DD773B404FF6FF77EC
:103E400007EA06172F433B43018102830384F0BD39
:103E50000A460021018B4FF68F73194011430183ED
:103E600070470A460021018B48F6FF7319404FF650
:103E7000FF7303EA02231943018370470A460021B6
:103E8000818B4FF68F7319401143818370470A4627
:103E90000021818B48F6FF7319404FF6FF7303EA48
:103EA000022319438183704721B1028842F08002C6
:103EB000028004E002884FF67F731A400280704748
:103EC00021B1828842F00402828004E082884FF6A9
:103ED000FB731A408280704721B1828842F0080249
:103EE000828004E082884FF6F7731A408280704720
:103EF00021B1828842F00102828004E082884FF67C
:103F0000FE731A40828070470A460021018B4FF6EB
:103F1000F77319401143018370470A460021018B52
:103F20004FF2FF7319404FF6FF7303EA0223194360
:103F3000018370470A460021818B4FF6F7731940C1
:103F40001143818370470A460021818B4FF2FF7332
:103F500019404FF6FF7303EA022319438183704728
:103F60000A460021018B4FF6FB7319401143018370
:103F700070470A460021018B4FF6FF3319404FF678
:103F8000FF7303EA02231943018370470A460021A5
:103F9000818B4FF6FB7319401143818370470A46AA
:103FA0000021818B4FF6FF3319404FF6FF7303EA70
:103FB00002231943818370470A460021018B4FF683
:103FC0007F7319401143018370470A460021018B1A
:103FD000C1F30E014FF6FF7303EA02231943018375
:103FE00070470A460021818B4FF67F7319401143B9
:103FF000818370470A460021818BC1F30E014FF681
:10400000FF7303EA02231943818370470A460021A4
:10401000018C4FF6FD7319401143018470470A4625
:104020000021018C4FF6F77319401143018470474A
:104030000A460021018C4FF6DF7319404FF6FF73DB
:1040400003EA02131943018470470A460021018CD8
:104050004FF67F7319404FF6FF7303EA02131943BB
:10406000018470470A460021018C4FF6FF53194026
:104070004FF6FF7303EA02231943018470470A468F
:104080000021018C4FF2FF7319404FF6FF7303EAD2
:1040900002231943018470470A460021018C4DF622
:1040A000FF7319404FF6FF7303EA0233194301848B
:1040B000704730B5002301248C40A3B2048C9C438C
:1040C0000484048C02FA01F5ADB22C43048430BDA3
:1040D00030B5002304248C40A3B2048C9C43048498
:1040E000048C02FA01F5ADB22C43048430BD70B5E6
:1040F0000346002000241846183001258D40ACB23C
:104100001D8CA5431D8409B1082909D100EB61006C
:10411000056825F0700505600568154305600EE02B
:104120000D1FC5F34E052844056825F4E0450560DC
:1041300005684FF6FF7606EA02263543056070BD36
:1041400021B1028842F00202028004E002884FF6A8
:10415000FD731A400280704721B1028842F00402C8
:10416000028004E002884FF6FB731A400280704719
:1041700021B1828842F08002828004E082884FF67A
:104180007F731A408280704702884FF6F7731A4097
:10419000028002880A430280704782884FF68F733C
:1041A0001A40828082880A438280704702894FF6D3
:1041B000F8731A40028102890A430281704702891A
:1041C0004FF67F731A40028102890A4302817047C9
:1041D0008184704781857047818670470187704769
:1041E00081877047A0F84010704702884FF6FF4360
:1041F0001A40028002880A43028070470146888E76
:1042000070470146088F70470146888F7047014606
:10421000B1F8400070470146888C70470146088D10
:10422000704702460020138A0B400BB1012000E0CA
:1042300000207047CA430282704730B50246002012
:1042400000230024158A05EA0103958905EA010483
:1042500013B10CB1012000E0002030BDCA4302823E
:10426000704700002DE9F05F06460F469046002497
:10427000B3463D46A1461CE068784FEA002A2878FC
:1042800050441FFA80FAAD1C2046611C8CB21949BB
:1042900021F810A0B4F5806F07D100244FF480629C
:1042A0005846FCF7CAFE0BF5006B09F102001FFA35
:1042B00080F9C145E0D324B122460E495846FCF7A7
:1042C000BCFEBDE8F09F10B504460B48844200D107
:1042D0000A4C20680A490840B0F1005F08D16068C4
:1042E000084908602068FBF7A8FF06480068804777
:1042F00010BD0000002000200050030800600308EB
:104300000000FE2F7C0000200160828070472DE9B4
:10431000F04104460F4616461D462888A18888426B
:1043200014DA2A883168206803F070FB2988206835
:1043300008442060A0882988401AA0802988306815
:104340000844306000202880BDE8F0812888A188DA
:10435000884212D12A883168206803F057FB2988E7
:104360002068084420600020A08029883068084424
:104370003060002028800120E6E7A28831682068AC
:1043800003F044FBA1882068084420602888A188A5
:10439000401A2880A1883068084430600020A0803E
:1043A0000120D1E730B5044613E010680578206895
:1043B00005701068401C10602068401C2060188840
:1043C000401E1880A088401EA0808D4201D102208E
:1043D00030BDA088002802DD18880028E5DC188898
:1043E00008B90020F4E70BE0106805781888401E33
:1043F00018801068401C10608D4201D10320E7E74F
:1044000018880028F0DC0120E2E710B5044694F893
:104410002000062804D1B948007800F00400A8B1B3
:10442000208AB7490968498A884206DDB44A126879
:10443000518A606801F0D2FC03E0218A606801F0D3
:10444000CDFC062084F82000012010BD0020FCE7F0
:10445000014691F82000062821D1A848007800F0F4
:104460000100E0B1088AA64A1268528A90420CDD27
:10447000088AA34A1268528A801A0882A04A4868A9
:104480001268528A1044486005E00A8A486810445D
:10449000486000200882012081F820007047002039
:1044A000FCE72DE9F04104460E461546608810B140
:1044B000CF2824D110E02DB900BF0020608001205A
:1044C000BDE8F08166602582002084F820000FE0BE
:1044D00000BFCF20608000BF2046FFF7B9FF07462E
:1044E0002046FFF792FF07400FB90020E8E700BF22
:1044F000208A0028ECDC002084F8200000BF00BFE8
:10450000002060800220DBE72DE9F04104460D46E3
:104510001646608810B1EE282FD11BE02DB900BFE0
:10452000002060800120BDE8F0813046A84720824D
:10453000744800686060002084F8200000BF6F4865
:10454000007800F0040008B13046A84700BFEE2014
:10455000608000BF2046FFF77BFF07462046FFF73D
:1045600054FF07400FB90020DDE700BF208A002874
:10457000E5DC002084F8200000BF00BF0020608040
:104580000220D0E701468A8B088B101A80B2704750
:104590000146488A002801DD0120704791F820007B
:1045A000022804D1032081F820000020F5E75348B9
:1045B000007800F0020008B10120EEE70020ECE7EF
:1045C00070B504460D46608820B1A0F21B1000288B
:1045D00036D10EE0A08B82B204F11400E168FFF73F
:1045E00093FE00BF608AA0B900BF40F21B1060803C
:1045F00000BF2046FFF7CCFF08B9002070BD00BF08
:10460000022084F820003F480068A0603E480088EF
:10461000608204F1120304F108022946981CFFF796
:10462000C1FE00F002000028DCD02046FFF7AAFF00
:1046300028B9002084F8200000BF6080DEE700BFBA
:1046400000BF002060800220D8E710B504466088D3
:1046500018B1B0F59B7F38D10EE0A08B82B204F187
:104660001400E168FFF750FE00BF608AB8B900BFD0
:104670004FF49B70608000BF2046FFF789FF08B9A8
:10468000002010BD00BF21A002F06CFF022084F8C2
:1046900020001C480068A0601B4800886082A08B36
:1046A00081B204F1120304F10802981CFFF72FFEF7
:1046B0000128DAD12046FFF765FF28B9002084F8E9
:1046C000200000BF6080DCE700BF00BF00206080EA
:1046D0000220D6E770B504460E461546002084F841
:1046E00020006082E660E561AAB2314604F1140060
:1046F000FFF70AFE00202080608070BDA00000202F
:10470000A4000020940000209C00002057616974E0
:10471000656420666F72206E6577646174610A005B
:1047200070B504460D46656001F080FD206070BDE7
:10473000D0E9001211440160704710B5044601F041
:1047400075FD206010BD10B5044601F06FFD2168B5
:10475000401A6168884201DB012010BD0020FCE79F
:10476000F64908807047C2780A44F54BDA708278BF
:1047700002EB21229A7042785A7002781A701A4617
:104780009278B2EB212F0ADA1A465278521C5A70EC
:104790001A4652781AB91A461278521C1A70E84A08
:1047A000D278CBB29A4212DAE54A9278521CE44BA4
:1047B0009A701A46927852B91A465278521C5A7018
:1047C0001A4652781AB91A461278521C1A70704753
:1047D000F0B50B46144619461E19751E0BE04E78AF
:1047E0000F7806EB0726B2B28618B0B2904201DA13
:1047F000461CB0B2891CA942F1D3A9420AD10E7855
:10480000002707EB0626B2B28618B0B2904201DA52
:10481000461CB0B2F0BD0146080240EA212080B239
:10482000704770B504460D462A4621460020FFF722
:10483000CFFF0646FFF7EFFF70BD10B51422C14948
:104840000020FFF7C5FF044614B94FF6FF7010BDF6
:104850002046FFF7E0FFFAE770B50446B9480E3886
:10486000417C007C01EB0020143885B2281986B207
:104870000822B4490C313046FFF7AAFF06462A4603
:10488000B04914313046FFF7A3FF064616B94FF67C
:10489000FF7070BD3046FFF7BEFFFAE710B5062087
:1048A000FFF7DAFF10BD10B51120FFF7D5FF10BDDF
:1048B0000020A54908700AE00020A449A24A127805
:1048C00021F81200A0480078401C9F4908709E48BB
:1048D00000782828F0DB00209B4908700DE00020BC
:1048E0009949097801EB8101994A02EBC1014876A7
:1048F00095480078401C944908709348007828280F
:10490000EDDB4FF480609349088000208E490870E9
:104910000DE000208C49097801EB41018E4A02EB41
:10492000C101888088480078401C87490870864803
:1049300000780A28EDDB704730B504460D4600BF0D
:1049400084480088401C8349088008460088B0F5E8
:10495000FA4F02DB4FF48050088000207A4908703B
:1049600015E07948007800EB8000794901EBC0023E
:10497000507E38B177480088FFF74DFF9188884214
:1049800000D1DDE770480078401C6F4908706E4820
:1049900000782828E5DB002200206B49087018E029
:1049A0006948007800EB8000694901EBC003587E3C
:1049B00008B91A4611E0587E072805D11AB1987E29
:1049C000917E884200DD1A465F480078401C5E49AF
:1049D00008705D4800782828E2DB00BF0AB9002093
:1049E00030BD022050765D48007810735B484178F6
:1049F000517381789173C178D17340F6CA70508237
:104A00009082012010820020D07601209076032031
:104A10001076002090751020D0754E480088FFF762
:104A2000FAFE9080D58000BF20881080608850807A
:104A300000BF1046D4E730B503460C4600BF4548DA
:104A40000088401C4349088008460088B0F5FA4FAA
:104A500002DB4FF48050088000203B49087013E0CF
:104A60003C480088FFF7D7FE3749097801EB410140
:104A7000394D05EBC1018988884200D1DFE7324812
:104A80000078401C304908702F4800780A28E7DB7E
:104A9000002200202C49087014E02B48007800EB1D
:104AA00040002D4901EBC000808830B926480078CD
:104AB00000EB400001EBC00208E023480078401CF6
:104AC00021490870204800780A28E6DB00BF0AB9AF
:104AD000002030BD1F48007800021E49098840EAC6
:104AE00021209080D48013B90020106005E000BF21
:104AF000188810805888508000BF402010721046DF
:104B0000E7E70021104A117012E010490E4A1278AE
:104B100031F81210814206D100210C4A0A4B1B7851
:104B200022F81310704708490978491C064A117089
:104B3000054909782829E8DB00BFF3E7AC0000202D
:104B4000B40000200E280020B8000020443E0020C1
:104B500004380020B2000020943E0020AE00002067
:104B60000021FE4A117010E0FD49FC4A127831F82C
:104B7000121029B9FA49F94A127821F8120070473F
:104B8000F6490978491CF54A1170F4490978282931
:104B9000EADB00BFF3E710B504462146F1480068A0
:104BA0000830FFF7E0FDF0480078EE490968087228
:104BB000ED484178EB4800684172EB488178E9485C
:104BC00000688172E848C178E6480068C17210BD8B
:104BD00070B50546E3480468042D00D1A9E2E34816
:104BE000E3490860E3490860032D0FD1607E00F0BF
:104BF0000F00032808D1208A30B90820DE49087048
:104C000001F084FC00F064BF01F0E1B8022D6ED128
:104C1000DA48C078401CC0B2D849C87078B9084694
:104C20008078401CC0B2887048B908464078401C63
:104C3000C0B2487018B908460078401C08700020BF
:104C4000CF490880CF490880607E072802D0607E67
:104C5000052808D1A07E401CA076A07E782861D1CE
:104C6000002060765EE0607E00285BD0208A00280D
:104C70004DD0A17E481EA076002953D1E07E0828A1
:104C800008D0607E022802D0607E012810D1E07E2C
:104C900005280DD1002060768020B749087001F00A
:104CA00035FC1421B148363880F82F1000F0E9BFE8
:104CB000E07E042801DD042000E0E07E0321814045
:104CC000A176E07E401CE076AF48C08C401C81B2EB
:104CD000AD48C184607E00F00F00092822D2DFE8D1
:104CE00000F02105070D132114211500A9E31AE096
:104CF00000219E48363880F82F10EDE304209E49AD
:104D0000087001F003FCE8E300BF00BFE6E3607E4B
:104D100000F00F00032805D108209749087001F022
:104D2000F5FB6FE770E7052D18D19848006880887B
:104D300098B100208B4908608C480C388C49086079
:104D40008C49086000208F4908808D490880082020
:104D50008949087002F096FBEBE155E78A484088E4
:104D6000401C8949488081483638807B45280BD0D3
:104D700008460088401C08800846C088401CC8803F
:104D800083A001F0E4FB3FE778483638417C007CA3
:104D900001EB00207A490988884208DC73483638DC
:104DA000417C007C01EB00207549088003E082A073
:104DB00001F0CDFB28E76D483638007D00F03F005C
:104DC00018B96A483638407D60B16F480088401C89
:104DD0006D49088008468089401C888182A001F0C6
:104DE000B6FB11E78648008886490988884205D1C4
:104DF0008348408883494988884213D05B483638C5
:104E0000C08B7F490988884206D158483638008CC3
:104E10007B494988884205D05B480088401C5A4934
:104E20000880F1E6FFF709FD4FF6FF7188420CD0CC
:104E300055480088401C544908800846C089401CD9
:104E4000C88171A001F083FBDEE648483638C07D9A
:104E5000062800D1C5E145483638C07D112800D16B
:104E600062E042483638C07D01280CD046480088B0
:104E7000401C454908800846008A401C088267A0FB
:104E800001F065FBC0E64048808A401C81B23E4884
:104E900081823648363890F8220008280ED03A48E9
:104EA000408A401C384948820846008B401C81B229
:104EB0003548018360A001F04AFBA5E600212B489C
:104EC000363880F82210808C4FF6F771884208DB64
:104ED00026483638808C093081B22448363881849F
:104EE00007E022483638808C083081B21F483638B7
:104EF000818400BF1D483638418BC183818B01847A
:104F000000BF00BF3E4801881848363841833C48FE
:104F1000418816483638818300BF1B48C08A401C30
:104F200081B21948C182FCE3154800881C38144935
:104F300008800E480C380E4908602A38008D58B198
:104F4000FFF7B1FC4FF6FF71884205D00E48808D07
:104F5000401C0D4988857BE084E00000B8000020FB
:104F6000443E0020A4000020B40000203628002089
:104F70009400002098000020A0000020AE00002037
:104F80009C0000209E000020843F0020A8000020FC
:104F900069703A20696E76616C6964207665727317
:104FA000696F6E206F7220686561646572206C6540
:104FB0006E6774682E00000069703A207061636B40
:104FC00065742073686F72746572207468616E20F6
:104FD0007265706F7274656420696E204950206834
:104FE00065616465722E000069703A2066726167BF
:104FF0006D656E742064726F707065642E000000C1
:1050000080000020DA7F000869703A206261642025
:10501000636865636B73756D2E00000069703A20DC
:105020006E65697468657220746370206E6F72209B
:1050300069636D702E00000069636D703A206E6FB9
:10504000742069636D70206563686F2E0000000036
:105050000846408E401C81B2FA484186FAA001F011
:1050600076FAD1E5FD48FE49086046E0FC48006854
:105070008088E0B3FB48808CF949096889888842B8
:1050800036D1F7480068C08830B1F648408CF44902
:105090000968C98888422BD1F14800680088F24924
:1050A0000988884206D1EE4800684088EE49498860
:1050B00088421BD0EA4800680088EC490988884289
:1050C00006D1E74800684088E849498888420DD001
:1050D000E448408BE24909680988884208D1E148E0
:1050E000808BDF4909684988884201D10FE0FFE7DA
:1050F000DB4800681830DA490860D9480168D748A9
:10510000F0308142B2D3DAA001F021FA7CE5002030
:10511000E04908600220E0490870D2482A30DF499F
:105120000860DF4908600020DE49088002F0AAF923
:1051300000BFDC48008800B966E5DA4800881C300A
:10514000D9490880084600880112C6480174D6482B
:105150000178C4484174C2480068017AC148817529
:105160001121C175CF4800880830C0F30721CD4810
:105170000078083041EA002081B2BA48C184002199
:105180000185B74800688188B6484184B448006802
:10519000C188B448818400BFC4480188B1484183B4
:1051A000C2484188AF48818300BF00BFAC48006857
:1051B0000188AC48C183AA4800684188A948018495
:1051C00000BF3630B5490860FFF76DFBC04381B2C0
:1051D000A4480185008D18B94FF6FF71A1480185DB
:1051E000EAE39848808B401C81B296488183FFF7A0
:1051F00055FB4FF6FF7188420ED09248408B401C01
:10520000904948830846008C401C81B28D48018437
:10521000A7A001F09CF9F7E4AA4C17E0607EA0B1CA
:105220009048808CA18888420FD18E48408CE188BC
:1052300088420AD18B48408B2188884205D1894811
:10524000808B6188884200D109E228349E488442DC
:10525000E4D9844890F82F0000F03F00022800D0E5
:1052600021E08048808C9949088000209849087086
:105270000EE098489649097830F81100934909885A
:10528000884200D19AE092480078401C904908700A
:105290008F4800782828ECDB6A48408D401C81B29A
:1052A0006848418500BF6F4890F82F0000F0040067
:1052B00000B1A9E46348808C401C81B261488184BC
:1052C0001421684880F82F10282077490880502141
:1052D000644880F82E1090F829007D4908706148D4
:1052E00090F82D1080F82910794801785D4880F8F1
:1052F0002D1090F82800764908705A4890F82C1024
:1053000080F8281072480178564880F82C1090F8E0
:1053100027006F490870534890F82B1080F8271029
:105320006B4801784F4880F82B1090F826006849A8
:1053300008704C4890F82A1080F8261064480178CC
:10534000484880F82A1090F82D00401CC1B245480A
:1053500080F82D10B1B990F82C00401CC1B2414822
:1053600080F82C1071B990F82B00401CC1B23D4858
:1053700080F82B1031B990F82A00401CC1B239488E
:1053800080F82A103748408C504908803548818C75
:1053900041844E4801883348818400BF418BC183DA
:1053A000818B018400BF00BF404801882D484183A4
:1053B0003E4841882B48818300BFFAE30024002047
:1053C0004349087030E04248007800EB80003D49D6
:1053D00001EBC000407E30B93D48007800EB800012
:1053E00001EBC00424E03A48007800EB8000354926
:1053F00001EBC000407E072811D14CB13448007841
:1054000000EB800001EBC000807EA17E884206DDBB
:105410002F48007800EB80002A4901EBC0042C489B
:105420000078401C2A490870294800782828CADBDF
:1054300000BF2CB90348008D401C81B201484EE0EA
:1054400052E0EBE0843F00207564703A20626164B2
:1054500020636865636B73756D2E0000943E0020B9
:10546000A800002000280020DA7F0008D67F00086E
:105470007564703A206E6F206D61746368696E6741
:1054800020636F6E6E656374696F6E20666F756EF4
:1054900064000000A4000020A00000209400002070
:1054A000980000209E0000209C000020800000202A
:1054B0007463703A2062616420636865636B73751E
:1054C0006D2E0000043800201C3E0020BA00002091
:1054D000B8000020443E0020A5E03BE3A2E20185A5
:1054E000F4A001F034F81DE4FB4804600320A0762A
:1054F00020760020A0750420E0750020E076F748B3
:10550000808CA080F548408CE08000BFF348408B41
:105510002080F248808B608000BF01206076F048D8
:1055200000782073EE48417861738178A173C17867
:10553000E17301202082E94890F82910E17290F887
:105540002810A17290F82710617290F8260020723E
:105550000120FFF720FBE14890F82E0000F0F0005A
:1055600050285ADD0020DF4908704AE0DD48007805
:105570003630DA49085CDC4908700846007800B922
:105580004AE0D9480078012805D1D6480078401C67
:10559000D449087035E0D4480078022820D1D14899
:1055A00000783730CD49085C042819D1CD480078FF
:1055B0003930095CCB4800783830C84A105C41EA81
:1055C0000020CA4908800846008840F6CA7188420F
:1055D00001DD084601E0C54800886082A0821BE02A
:1055E000C04800783730BD49085C00B914E0BD48B8
:1055F00000783730B949085CBA4909780844B94994
:105600000870B64890F82E000521C1EB2010B5496E
:105610000978B1EB800FA9DB00BF00BF1021AF48B4
:1056200080F82F1000BFAD4890F82F0040F0020125
:10563000AA4880F82F10022180F83610042180F843
:1056400037100F2180F83810CA2180F839102C202B
:10565000A74908806021A14880F82E101AE39E48CF
:1056600004600020A34908709C4890F82F0000F0C7
:10567000040050B1002060769FA000F068FF202059
:105680009C49087000F042FFA1E3944890F82E0076
:105690000011800093490870954800880978401AE5
:1056A000143893490880607E00F00F00022806D16C
:1056B0008A4890F82F0000F03F00122822D08C4832
:1056C0000088002805DC854890F82F0000F00300D2
:1056D000C0B1824890F82600217A884211D17F48D3
:1056E00090F82710607A81420BD17C4890F82810FE
:1056F000A07A814205D1794890F82910E07A814258
:1057000000D0B9E2754890F82F0000F01000E8B31F
:10571000208AD8B3218A04F10C00FFF724F86F48DF
:1057200000E04BE390F82A007D490978884245D192
:105730006A4890F82B007A49497888423ED16748F8
:1057400090F82C0076498978884237D1634890F8E0
:105750002D007349C978884230D171480078207390
:105760006F48417861738178A173C178E173E07EFD
:10577000E8B9217EA27E891A48B2A17DA0EBE101A1
:1057800048B2A17D0144A175002800E016E001DACD
:10579000414248B2E17DA0EBA10148B2E17D014464
:1057A000E175E17DA27D01EBE201217600BF0120E0
:1057B00050490870207EA07600202082607E00F094
:1057C0000F0009286BD2DFE800F06A0525F6F5F432
:1057D000F3F2F1004748007800F00100C8B103205F
:1057E00060764020434908700020208240480088AD
:1057F000002808DD0846007840F0020008703C48A8
:105800000088FFF7C8F900204649088000F07EFEB6
:105810005EE1DCE23748007800F00100F0B32F4889
:1058200090F82F0000F03F00122837D12B4890F855
:105830002E0000F0F00050283BDD002029490870C0
:1058400088E02848007836302449085C26490870EA
:105850000846007800B989E023480078012805D17E
:1058600020480078401C1F49087073E01E480078EB
:1058700002285ED11B48007837301849085C04289C
:1058800057D1184800783930095C1648007838300C
:10589000124A105C41EA0020144901E08DE0E9E180
:1058A00008800846008840F6CA7188423CDD0846F8
:1058B0003CE05CE07463703A20666F756E64206E45
:1058C0006F20756E7573656420636F6E6E656374AB
:1058D000696F6E732E000000A400002000280020D5
:1058E000AE000020B8000020B9000020BA0000205F
:1058F0009C000020A00000207463703A20676F7441
:105900002072657365742C2061626F7274696E67B2
:1059100020636F6E6E656374696F6E2E0000000009
:10592000B40000209E000020F74800886082A0821A
:105930001CE0F64800783730F549085C00B915E0FE
:10594000F24800783730F249085CF0490978084499
:10595000EE490870EE4890F82E000521C1EB2010AA
:10596000EA490978B1EB800FFFF66BAF00BF032067
:105970006076E74890F826002072E54890F82710F6
:10598000617290F82810A17290F82910E17201203C
:10599000FFF701F94220DF49087000202082DE492C
:1059A0000880DE49088000F0B1FD91E0F4E056E1A6
:1059B00056E133E1FEE00AE0DBE12020D549087042
:1059C00000F0A4FD0020D649096848766BE4D04871
:1059D00090F82F0000F0010048B3607E00F0100046
:1059E00028BB208A00B1F2E1CB490988491C88B262
:1059F000FFF7D1F8C748007840F01000C54908709B
:105A0000C5480088002804DD0846007840F0020000
:105A1000087000F07BFD01202082082060760020C5
:105A2000E07600BF1121BA4880F82F1029E1B8486C
:105A300090F82F0000F02000B8B1B54890F835106C
:105A400090F8340041EA0020B64909680844B54995
:105A50000860AF4890F8351090F8340041EA002013
:105A6000AD490988081AAC490880AB48008800286D
:105A70000DDD607E00F0100048B9A648007840F0C7
:105A80000200A4490870A4480088FFF784F8A048E1
:105A900090F8311090F8300001EB00209A4908800E
:105AA000A08A0988884202DB9748008810B9A08A3A
:105AB000954908809448008860829648007800F0F4
:105AC0000300E8B300209549088000F01FFD00BFE7
:105AD0009048007800F0200040B100208F490880F5
